{
  "_format": "hh-sol-artifact-1",
  "contractName": "Farmer",
  "sourceName": "contracts/Farmer.sol",
  "abi": [
    {
      "inputs": [
        {
          "internalType": "address",
          "name": "_tokenAddress",
          "type": "address"
        }
      ],
      "stateMutability": "nonpayable",
      "type": "constructor"
    },
    {
      "inputs": [
        {
          "internalType": "address",
          "name": "vendorAddress",
          "type": "address"
        },
        {
          "internalType": "uint256",
          "name": "itemsCost",
          "type": "uint256"
        }
      ],
      "name": "buyProducts",
      "outputs": [],
      "stateMutability": "nonpayable",
      "type": "function"
    },
    {
      "inputs": [
        {
          "internalType": "address",
          "name": "owner",
          "type": "address"
        },
        {
          "internalType": "address",
          "name": "spender",
          "type": "address"
        }
      ],
      "name": "checkAllowance",
      "outputs": [
        {
          "internalType": "uint256",
          "name": "",
          "type": "uint256"
        }
      ],
      "stateMutability": "view",
      "type": "function"
    },
    {
      "inputs": [
        {
          "internalType": "address",
          "name": "farmerAddress",
          "type": "address"
        }
      ],
      "name": "getFarmerRating",
      "outputs": [
        {
          "internalType": "uint32",
          "name": "",
          "type": "uint32"
        }
      ],
      "stateMutability": "view",
      "type": "function"
    },
    {
      "inputs": [
        {
          "internalType": "address",
          "name": "farmerAddress",
          "type": "address"
        },
        {
          "internalType": "uint256",
          "name": "amount",
          "type": "uint256"
        }
      ],
      "name": "payFarmer",
      "outputs": [],
      "stateMutability": "nonpayable",
      "type": "function"
    },
    {
      "inputs": [
        {
          "internalType": "address",
          "name": "farmerAddress",
          "type": "address"
        },
        {
          "internalType": "uint32",
          "name": "rating",
          "type": "uint32"
        }
      ],
      "name": "rateFarmer",
      "outputs": [],
      "stateMutability": "nonpayable",
      "type": "function"
    },
    {
      "inputs": [
        {
          "internalType": "uint256",
          "name": "subscriptionAmount",
          "type": "uint256"
        }
      ],
      "name": "subscribe",
      "outputs": [],
      "stateMutability": "nonpayable",
      "type": "function"
    },
    {
      "inputs": [
        {
          "internalType": "uint256",
          "name": "rewardAmount",
          "type": "uint256"
        }
      ],
      "name": "transferTokensToFarmer",
      "outputs": [],
      "stateMutability": "nonpayable",
      "type": "function"
    },
    {
      "inputs": [],
      "name": "vegrowwToken",
      "outputs": [
        {
          "internalType": "contract IERC20",
          "name": "",
          "type": "address"
        }
      ],
      "stateMutability": "view",
      "type": "function"
    }
  ],
  "bytecode": "0x60806040523480156200001157600080fd5b50604051620012cd380380620012cd8339818101604052810190620000379190620000e8565b806000806101000a81548173ffffffffffffffffffffffffffffffffffffffff021916908373ffffffffffffffffffffffffffffffffffffffff160217905550506200011a565b600080fd5b600073ffffffffffffffffffffffffffffffffffffffff82169050919050565b6000620000b08262000083565b9050919050565b620000c281620000a3565b8114620000ce57600080fd5b50565b600081519050620000e281620000b7565b92915050565b6000602082840312156200010157620001006200007e565b5b60006200011184828501620000d1565b91505092915050565b6111a3806200012a6000396000f3fe608060405234801561001057600080fd5b50600436106100885760003560e01c80638b099b231161005b5780638b099b23146100ff578063da30923f1461012f578063ede1e4161461014b578063f9fa57321461016757610088565b80630cf5946b1461008d5780630f574ba7146100a95780631718b22e146100c55780634f367b32146100e1575b600080fd5b6100a760048036038101906100a29190610b98565b610197565b005b6100c360048036038101906100be9190610bd8565b61035c565b005b6100df60048036038101906100da9190610b98565b610520565b005b6100e9610767565b6040516100f69190610c64565b60405180910390f35b61011960048036038101906101149190610c7f565b61078b565b6040516101269190610cce565b60405180910390f35b61014960048036038101906101449190610bd8565b610832565b005b61016560048036038101906101609190610d25565b6109ee565b005b610181600480360381019061017c9190610d65565b610aa3565b60405161018e9190610da1565b60405180910390f35b60003390508160008054906101000a900473ffffffffffffffffffffffffffffffffffffffff1673ffffffffffffffffffffffffffffffffffffffff166370a08231336040518263ffffffff1660e01b81526004016101f69190610dcb565b602060405180830381865afa158015610213573d6000803e3d6000fd5b505050506040513d601f19601f820116820180604052508101906102379190610dfb565b1015610278576040517f08c379a000000000000000000000000000000000000000000000000000000000815260040161026f90610e85565b60405180910390fd5b60008054906101000a900473ffffffffffffffffffffffffffffffffffffffff1673ffffffffffffffffffffffffffffffffffffffff166323b872dd8285856040518463ffffffff1660e01b81526004016102d593929190610ea5565b6020604051808303816000875af11580156102f4573d6000803e3d6000fd5b505050506040513d601f19601f820116820180604052508101906103189190610f14565b610357576040517f08c379a000000000000000000000000000000000000000000000000000000000815260040161034e90610f8d565b60405180910390fd5b505050565b60003390508160008054906101000a900473ffffffffffffffffffffffffffffffffffffffff1673ffffffffffffffffffffffffffffffffffffffff166370a08231336040518263ffffffff1660e01b81526004016103bb9190610dcb565b602060405180830381865afa1580156103d8573d6000803e3d6000fd5b505050506040513d601f19601f820116820180604052508101906103fc9190610dfb565b101561043d576040517f08c379a000000000000000000000000000000000000000000000000000000000815260040161043490610e85565b60405180910390fd5b60008054906101000a900473ffffffffffffffffffffffffffffffffffffffff1673ffffffffffffffffffffffffffffffffffffffff166323b872dd8230856040518463ffffffff1660e01b815260040161049a93929190610ea5565b6020604051808303816000875af11580156104b9573d6000803e3d6000fd5b505050506040513d601f19601f820116820180604052508101906104dd9190610f14565b61051c576040517f08c379a000000000000000000000000000000000000000000000000000000000815260040161051390610f8d565b60405180910390fd5b5050565b600033905060008290506005600160008473ffffffffffffffffffffffffffffffffffffffff1673ffffffffffffffffffffffffffffffffffffffff16815260200190815260200160002060000160149054906101000a900463ffffffff1663ffffffff16036105a6576064600a846105999190610fdc565b6105a3919061104d565b90505b8060008054906101000a900473ffffffffffffffffffffffffffffffffffffffff1673ffffffffffffffffffffffffffffffffffffffff166370a08231336040518263ffffffff1660e01b81526004016106009190610dcb565b602060405180830381865afa15801561061d573d6000803e3d6000fd5b505050506040513d601f19601f820116820180604052508101906106419190610dfb565b1015610682576040517f08c379a000000000000000000000000000000000000000000000000000000000815260040161067990610e85565b60405180910390fd5b60008054906101000a900473ffffffffffffffffffffffffffffffffffffffff1673ffffffffffffffffffffffffffffffffffffffff166323b872dd8386846040518463ffffffff1660e01b81526004016106df93929190610ea5565b6020604051808303816000875af11580156106fe573d6000803e3d6000fd5b505050506040513d601f19601f820116820180604052508101906107229190610f14565b610761576040517f08c379a000000000000000000000000000000000000000000000000000000000815260040161075890610f8d565b60405180910390fd5b50505050565b60008054906101000a900473ffffffffffffffffffffffffffffffffffffffff1681565b60008060009054906101000a900473ffffffffffffffffffffffffffffffffffffffff1673ffffffffffffffffffffffffffffffffffffffff1663dd62ed3e84846040518363ffffffff1660e01b81526004016107e992919061107e565b602060405180830381865afa158015610806573d6000803e3d6000fd5b505050506040513d601f19601f8201168201806040525081019061082a9190610dfb565b905092915050565b8060008054906101000a900473ffffffffffffffffffffffffffffffffffffffff1673ffffffffffffffffffffffffffffffffffffffff166370a08231306040518263ffffffff1660e01b815260040161088c9190610dcb565b602060405180830381865afa1580156108a9573d6000803e3d6000fd5b505050506040513d601f19601f820116820180604052508101906108cd9190610dfb565b101561090e576040517f08c379a000000000000000000000000000000000000000000000000000000000815260040161090590610e85565b60405180910390fd5b60008054906101000a900473ffffffffffffffffffffffffffffffffffffffff1673ffffffffffffffffffffffffffffffffffffffff1663a9059cbb33836040518363ffffffff1660e01b81526004016109699291906110a7565b6020604051808303816000875af1158015610988573d6000803e3d6000fd5b505050506040513d601f19601f820116820180604052508101906109ac9190610f14565b6109eb576040517f08c379a00000000000000000000000000000000000000000000000000000000081526004016109e290610f8d565b60405180910390fd5b50565b6000600160008473ffffffffffffffffffffffffffffffffffffffff1673ffffffffffffffffffffffffffffffffffffffff16815260200190815260200160002090506001816001016000828254610a4691906110d0565b925050819055508060010154828260000160149054906101000a900463ffffffff16610a729190611104565b610a7c919061113c565b8160000160146101000a81548163ffffffff021916908363ffffffff160217905550505050565b6000600160008373ffffffffffffffffffffffffffffffffffffffff1673ffffffffffffffffffffffffffffffffffffffff16815260200190815260200160002060000160149054906101000a900463ffffffff169050919050565b600080fd5b600073ffffffffffffffffffffffffffffffffffffffff82169050919050565b6000610b2f82610b04565b9050919050565b610b3f81610b24565b8114610b4a57600080fd5b50565b600081359050610b5c81610b36565b92915050565b6000819050919050565b610b7581610b62565b8114610b8057600080fd5b50565b600081359050610b9281610b6c565b92915050565b60008060408385031215610baf57610bae610aff565b5b6000610bbd85828601610b4d565b9250506020610bce85828601610b83565b9150509250929050565b600060208284031215610bee57610bed610aff565b5b6000610bfc84828501610b83565b91505092915050565b6000819050919050565b6000610c2a610c25610c2084610b04565b610c05565b610b04565b9050919050565b6000610c3c82610c0f565b9050919050565b6000610c4e82610c31565b9050919050565b610c5e81610c43565b82525050565b6000602082019050610c796000830184610c55565b92915050565b60008060408385031215610c9657610c95610aff565b5b6000610ca485828601610b4d565b9250506020610cb585828601610b4d565b9150509250929050565b610cc881610b62565b82525050565b6000602082019050610ce36000830184610cbf565b92915050565b600063ffffffff82169050919050565b610d0281610ce9565b8114610d0d57600080fd5b50565b600081359050610d1f81610cf9565b92915050565b60008060408385031215610d3c57610d3b610aff565b5b6000610d4a85828601610b4d565b9250506020610d5b85828601610d10565b9150509250929050565b600060208284031215610d7b57610d7a610aff565b5b6000610d8984828501610b4d565b91505092915050565b610d9b81610ce9565b82525050565b6000602082019050610db66000830184610d92565b92915050565b610dc581610b24565b82525050565b6000602082019050610de06000830184610dbc565b92915050565b600081519050610df581610b6c565b92915050565b600060208284031215610e1157610e10610aff565b5b6000610e1f84828501610de6565b91505092915050565b600082825260208201905092915050565b7f496e73756666696369656e742066756e64730000000000000000000000000000600082015250565b6000610e6f601283610e28565b9150610e7a82610e39565b602082019050919050565b60006020820190508181036000830152610e9e81610e62565b9050919050565b6000606082019050610eba6000830186610dbc565b610ec76020830185610dbc565b610ed46040830184610cbf565b949350505050565b60008115159050919050565b610ef181610edc565b8114610efc57600080fd5b50565b600081519050610f0e81610ee8565b92915050565b600060208284031215610f2a57610f29610aff565b5b6000610f3884828501610eff565b91505092915050565b7f546f6b656e207472616e73666572206661696c65640000000000000000000000600082015250565b6000610f77601583610e28565b9150610f8282610f41565b602082019050919050565b60006020820190508181036000830152610fa681610f6a565b9050919050565b7f4e487b7100000000000000000000000000000000000000000000000000000000600052601160045260246000fd5b6000610fe782610b62565b9150610ff283610b62565b925082820261100081610b62565b9150828204841483151761101757611016610fad565b5b5092915050565b7f4e487b7100000000000000000000000000000000000000000000000000000000600052601260045260246000fd5b600061105882610b62565b915061106383610b62565b9250826110735761107261101e565b5b828204905092915050565b60006040820190506110936000830185610dbc565b6110a06020830184610dbc565b9392505050565b60006040820190506110bc6000830185610dbc565b6110c96020830184610cbf565b9392505050565b60006110db82610b62565b91506110e683610b62565b92508282019050808211156110fe576110fd610fad565b5b92915050565b600061110f82610ce9565b915061111a83610ce9565b9250828201905063ffffffff81111561113657611135610fad565b5b92915050565b600061114782610ce9565b915061115283610ce9565b9250826111625761116161101e565b5b82820490509291505056fea26469706673582212204c1e126f980502604cc8c6aac6a949e468d259b459a6901ae465ccca23a4030964736f6c63430008120033",
  "linkReferences": {},
  "deployedLinkReferences": {}
}